{
  "contractName": "TicketToken",
  "abi": [
    {
      "constant": true,
      "inputs": [],
      "name": "totalSupply",
      "outputs": [
        {
          "name": "",
          "type": "uint256"
        }
      ],
      "payable": false,
      "stateMutability": "view",
      "type": "function",
      "signature": "0x18160ddd"
    },
    {
      "inputs": [],
      "payable": false,
      "stateMutability": "nonpayable",
      "type": "constructor",
      "signature": "constructor"
    }
  ],
  "bytecode": "0x608060405234801561001057600080fd5b50620f4240600081905550609e806100296000396000f300608060405260043610603f576000357c0100000000000000000000000000000000000000000000000000000000900463ffffffff16806318160ddd146044575b600080fd5b348015604f57600080fd5b506056606c565b6040518082815260200191505060405180910390f35b600054815600a165627a7a7230582099477ab2226b25f7e46e25912ab83f54115089f9c757b7db91e979db7358a6c60029",
  "source": "pragma solidity ^0.4.2;\n\ncontract TicketToken{\n\t// Basics for smart contract:\n\t// Constructor\n\t// Set the total number of tokens\n\t// Read the total number of tokens\n\n\tuint256 public totalSupply; // state variable (variable accessible to the entire contract and written to disk on the blockchain)\n\n\tfunction TicketToken() public {\n\t\ttotalSupply = 1000000;\n\t}\n}",
  "sourcePath": "/Users/ian/Repositories/ticketing-blockchain/Token/token_sale/contracts/TicketToken.sol",
  "compiler": {
    "name": "solc",
    "version": "0.4.25+commit.59dbf8f1.Emscripten.clang"
  },
  "schemaVersion": "3.0.1",
  "updatedAt": "2019-02-12T23:47:54.686Z",
  "devdoc": {
    "methods": {}
  },
  "userdoc": {
    "methods": {}
  }
}